{
  "contractName": "register",
  "abi": [
    {
      "inputs": [
        {
          "internalType": "address",
          "name": "username",
          "type": "address"
        },
        {
          "internalType": "uint256",
          "name": "password",
          "type": "uint256"
        },
        {
          "internalType": "string",
          "name": "email",
          "type": "string"
        }
      ],
      "name": "registerBidUser",
      "outputs": [],
      "stateMutability": "nonpayable",
      "type": "function"
    },
    {
      "inputs": [
        {
          "internalType": "address",
          "name": "username",
          "type": "address"
        },
        {
          "internalType": "uint256",
          "name": "password",
          "type": "uint256"
        }
      ],
      "name": "loginBidUser",
      "outputs": [
        {
          "internalType": "string",
          "name": "",
          "type": "string"
        }
      ],
      "stateMutability": "view",
      "type": "function",
      "constant": true
    },
    {
      "inputs": [
        {
          "internalType": "address",
          "name": "username",
          "type": "address"
        },
        {
          "internalType": "uint256",
          "name": "password",
          "type": "uint256"
        }
      ],
      "name": "registerUser",
      "outputs": [],
      "stateMutability": "nonpayable",
      "type": "function"
    },
    {
      "inputs": [
        {
          "internalType": "address",
          "name": "username",
          "type": "address"
        },
        {
          "internalType": "uint256",
          "name": "password",
          "type": "uint256"
        }
      ],
      "name": "loginUser",
      "outputs": [
        {
          "internalType": "bool",
          "name": "",
          "type": "bool"
        }
      ],
      "stateMutability": "view",
      "type": "function",
      "constant": true
    }
  ],
  "bytecode": "0x608060405234801561001057600080fd5b50610c16806100206000396000f3fe608060405234801561001057600080fd5b506004361061004c5760003560e01c80635c57ec9e14610051578063c2e9fc6d1461006d578063eb72346b1461009d578063fa0b5e55146100cd575b600080fd5b61006b6004803603810190610066919061094b565b6100e9565b005b610087600480360381019061008291906109ba565b610265565b6040516100949190610a82565b60405180910390f35b6100b760048036038101906100b291906109ba565b610448565b6040516100c49190610abf565b60405180910390f35b6100e760048036038101906100e291906109ba565b61057b565b005b600660008473ffffffffffffffffffffffffffffffffffffffff1673ffffffffffffffffffffffffffffffffffffffff16815260200190815260200160002060009054906101000a900460ff161561014057600080fd5b6001600660008573ffffffffffffffffffffffffffffffffffffffff1673ffffffffffffffffffffffffffffffffffffffff16815260200190815260200160002060006101000a81548160ff0219169083151502179055506002839080600181540180825580915050600190039060005260206000200160009091909190916101000a81548173ffffffffffffffffffffffffffffffffffffffff021916908373ffffffffffffffffffffffffffffffffffffffff160217905550600382908060018154018082558091505060019003906000526020600020016000909190919091505560048190806001815401808255809150506001900390600052602060002001600090919091909150908051906020019061025f9291906106ba565b50505050565b60606000600660008573ffffffffffffffffffffffffffffffffffffffff1673ffffffffffffffffffffffffffffffffffffffff16815260200190815260200160002060009054906101000a900460ff166102bf57600080fd5b600090505b60028054905081101561042e578373ffffffffffffffffffffffffffffffffffffffff16600282815481106102fc576102fb610ada565b5b9060005260206000200160009054906101000a900473ffffffffffffffffffffffffffffffffffffffff1673ffffffffffffffffffffffffffffffffffffffff161480156103675750826003828154811061035a57610359610ada565b5b9060005260206000200154145b1561041b57600481815481106103805761037f610ada565b5b90600052602060002001805461039590610b38565b80601f01602080910402602001604051908101604052809291908181526020018280546103c190610b38565b801561040e5780601f106103e35761010080835404028352916020019161040e565b820191906000526020600020905b8154815290600101906020018083116103f157829003601f168201915b5050505050915050610442565b808061042690610b98565b9150506102c4565b604051806020016040528060008152509150505b92915050565b60008060009050600560008573ffffffffffffffffffffffffffffffffffffffff1673ffffffffffffffffffffffffffffffffffffffff16815260200190815260200160002060009054906101000a900460ff166104a557600080fd5b600090505b60008054905081101561056f578373ffffffffffffffffffffffffffffffffffffffff16600082815481106104e2576104e1610ada565b5b9060005260206000200160009054906101000a900473ffffffffffffffffffffffffffffffffffffffff1673ffffffffffffffffffffffffffffffffffffffff1614801561054d575082600182815481106105405761053f610ada565b5b9060005260206000200154145b1561055c576001915050610575565b808061056790610b98565b9150506104aa565b60009150505b92915050565b600560008373ffffffffffffffffffffffffffffffffffffffff1673ffffffffffffffffffffffffffffffffffffffff16815260200190815260200160002060009054906101000a900460ff16156105d257600080fd5b6001600560008473ffffffffffffffffffffffffffffffffffffffff1673ffffffffffffffffffffffffffffffffffffffff16815260200190815260200160002060006101000a81548160ff0219169083151502179055506000829080600181540180825580915050600190039060005260206000200160009091909190916101000a81548173ffffffffffffffffffffffffffffffffffffffff021916908373ffffffffffffffffffffffffffffffffffffffff16021790555060018190806001815401808255809150506001900390600052602060002001600090919091909150555050565b8280546106c690610b38565b90600052602060002090601f0160209004810192826106e8576000855561072f565b82601f1061070157805160ff191683800117855561072f565b8280016001018555821561072f579182015b8281111561072e578251825591602001919060010190610713565b5b50905061073c9190610740565b5090565b5b80821115610759576000816000905550600101610741565b5090565b6000604051905090565b600080fd5b600080fd5b600073ffffffffffffffffffffffffffffffffffffffff82169050919050565b600061079c82610771565b9050919050565b6107ac81610791565b81146107b757600080fd5b50565b6000813590506107c9816107a3565b92915050565b6000819050919050565b6107e2816107cf565b81146107ed57600080fd5b50565b6000813590506107ff816107d9565b92915050565b600080fd5b600080fd5b6000601f19601f8301169050919050565b7f4e487b7100000000000000000000000000000000000000000000000000000000600052604160045260246000fd5b6108588261080f565b810181811067ffffffffffffffff8211171561087757610876610820565b5b80604052505050565b600061088a61075d565b9050610896828261084f565b919050565b600067ffffffffffffffff8211156108b6576108b5610820565b5b6108bf8261080f565b9050602081019050919050565b82818337600083830152505050565b60006108ee6108e98461089b565b610880565b90508281526020810184848401111561090a5761090961080a565b5b6109158482856108cc565b509392505050565b600082601f83011261093257610931610805565b5b81356109428482602086016108db565b91505092915050565b60008060006060848603121561096457610963610767565b5b6000610972868287016107ba565b9350506020610983868287016107f0565b925050604084013567ffffffffffffffff8111156109a4576109a361076c565b5b6109b08682870161091d565b9150509250925092565b600080604083850312156109d1576109d0610767565b5b60006109df858286016107ba565b92505060206109f0858286016107f0565b9150509250929050565b600081519050919050565b600082825260208201905092915050565b60005b83811015610a34578082015181840152602081019050610a19565b83811115610a43576000848401525b50505050565b6000610a54826109fa565b610a5e8185610a05565b9350610a6e818560208601610a16565b610a778161080f565b840191505092915050565b60006020820190508181036000830152610a9c8184610a49565b905092915050565b60008115159050919050565b610ab981610aa4565b82525050565b6000602082019050610ad46000830184610ab0565b92915050565b7f4e487b7100000000000000000000000000000000000000000000000000000000600052603260045260246000fd5b7f4e487b7100000000000000000000000000000000000000000000000000000000600052602260045260246000fd5b60006002820490506001821680610b5057607f821691505b602082108103610b6357610b62610b09565b5b50919050565b7f4e487b7100000000000000000000000000000000000000000000000000000000600052601160045260246000fd5b6000610ba3826107cf565b91507fffffffffffffffffffffffffffffffffffffffffffffffffffffffffffffffff8203610bd557610bd4610b69565b5b60018201905091905056fea26469706673582212209cec0013b0a9d8b0f12369efac334f4805045af9b437ed8597aa7329fcbe8c2464736f6c634300080d0033",
  "immutableReferences": {},
  "source": "// SPDX-License-Identifier: MIT\r\npragma solidity >=0.4.22 <0.9.0;\r\n\r\ncontract register {\r\n\r\n    address[] _username;\r\n    uint[] _password;\r\n\r\n    address[] _bidusername;\r\n    uint[] _bidpassword;\r\n    string[] _bidemail;\r\n\r\n    mapping(address => bool) users;\r\n    mapping(address => bool) bidUsers;\r\n\r\n    function registerBidUser(address username,uint password,string memory email) public {\r\n        \r\n        require(!bidUsers[username]);\r\n\r\n        bidUsers[username]=true;\r\n        _bidusername.push(username);\r\n        _bidpassword.push(password);\r\n        _bidemail.push(email);\r\n\r\n    }\r\n\r\n    function loginBidUser(address username,uint password) public view returns(string memory){\r\n\r\n        uint i=0;\r\n        require(bidUsers[username]);\r\n\r\n        for(i=0;i<_bidusername.length;i++) {\r\n            if(_bidusername[i]==username && _bidpassword[i]==password) {\r\n                return _bidemail[i];\r\n            }\r\n        }\r\n        return \"\";\r\n    }\r\n\r\n    function registerUser(address username,uint password) public {\r\n\r\n        require(!users[username]);\r\n\r\n        users[username]=true;\r\n        _username.push(username);\r\n        _password.push(password);\r\n    }\r\n\r\n    function loginUser(address username,uint password) public view returns(bool){\r\n\r\n        uint i=0;\r\n        require(users[username]);\r\n\r\n        for(i=0;i<_username.length;i++) {\r\n            if(_username[i]==username && _password[i]==password) {\r\n                return true;\r\n            }\r\n        }\r\n        return false;\r\n    }\r\n}",
  "sourcePath": "C:\\Users\\Madhu\\Dropbox\\rcew-hackathon-project-implementations\\A-Blockchain-and-Edge-Computing-based-Secure-Framework-for-Government-Tender-Allocation\\contracts\\register.sol",
  "compiler": {
    "name": "solc",
    "version": "0.8.13+commit.abaa5c0e.Emscripten.clang"
  },
  "schemaVersion": "3.4.7",
  "updatedAt": "2022-06-01T15:21:03.545Z",
  "networkType": "ethereum",
  "devdoc": {
    "kind": "dev",
    "methods": {},
    "version": 1
  },
  "userdoc": {
    "kind": "user",
    "methods": {},
    "version": 1
  }
}