{
  "contractName": "register",
  "abi": [
    {
      "inputs": [
        {
          "internalType": "address",
          "name": "username",
          "type": "address"
        },
        {
          "internalType": "uint256",
          "name": "password",
          "type": "uint256"
        }
      ],
      "name": "registerUser",
      "outputs": [],
      "stateMutability": "nonpayable",
      "type": "function"
    },
    {
      "inputs": [
        {
          "internalType": "address",
          "name": "username",
          "type": "address"
        },
        {
          "internalType": "uint256",
          "name": "password",
          "type": "uint256"
        }
      ],
      "name": "loginUser",
      "outputs": [
        {
          "internalType": "bool",
          "name": "",
          "type": "bool"
        }
      ],
      "stateMutability": "view",
      "type": "function",
      "constant": true
    }
  ],
  "bytecode": "0x608060405234801561001057600080fd5b506104e4806100206000396000f3fe608060405234801561001057600080fd5b50600436106100365760003560e01c8063eb72346b1461003b578063fa0b5e551461006b575b600080fd5b61005560048036038101906100509190610392565b610087565b60405161006291906103ed565b60405180910390f35b61008560048036038101906100809190610392565b6101ba565b005b60008060009050600260008573ffffffffffffffffffffffffffffffffffffffff1673ffffffffffffffffffffffffffffffffffffffff16815260200190815260200160002060009054906101000a900460ff166100e457600080fd5b600090505b6000805490508110156101ae578373ffffffffffffffffffffffffffffffffffffffff166000828154811061012157610120610408565b5b9060005260206000200160009054906101000a900473ffffffffffffffffffffffffffffffffffffffff1673ffffffffffffffffffffffffffffffffffffffff1614801561018c5750826001828154811061017f5761017e610408565b5b9060005260206000200154145b1561019b5760019150506101b4565b80806101a690610466565b9150506100e9565b60009150505b92915050565b600260008373ffffffffffffffffffffffffffffffffffffffff1673ffffffffffffffffffffffffffffffffffffffff16815260200190815260200160002060009054906101000a900460ff161561021157600080fd5b6001600260008473ffffffffffffffffffffffffffffffffffffffff1673ffffffffffffffffffffffffffffffffffffffff16815260200190815260200160002060006101000a81548160ff0219169083151502179055506000829080600181540180825580915050600190039060005260206000200160009091909190916101000a81548173ffffffffffffffffffffffffffffffffffffffff021916908373ffffffffffffffffffffffffffffffffffffffff16021790555060018190806001815401808255809150506001900390600052602060002001600090919091909150555050565b600080fd5b600073ffffffffffffffffffffffffffffffffffffffff82169050919050565b6000610329826102fe565b9050919050565b6103398161031e565b811461034457600080fd5b50565b60008135905061035681610330565b92915050565b6000819050919050565b61036f8161035c565b811461037a57600080fd5b50565b60008135905061038c81610366565b92915050565b600080604083850312156103a9576103a86102f9565b5b60006103b785828601610347565b92505060206103c88582860161037d565b9150509250929050565b60008115159050919050565b6103e7816103d2565b82525050565b600060208201905061040260008301846103de565b92915050565b7f4e487b7100000000000000000000000000000000000000000000000000000000600052603260045260246000fd5b7f4e487b7100000000000000000000000000000000000000000000000000000000600052601160045260246000fd5b60006104718261035c565b91507fffffffffffffffffffffffffffffffffffffffffffffffffffffffffffffffff82036104a3576104a2610437565b5b60018201905091905056fea264697066735822122085a4598aa055d903c125e0ed43bc8b65343fafbd07214227fdbd1603b50d1e5c64736f6c634300080d0033",
  "immutableReferences": {},
  "source": "// SPDX-License-Identifier: MIT\r\npragma solidity >=0.4.22 <0.9.0;\r\n\r\ncontract register {\r\n\r\n    address[] _username;\r\n    uint[] _password;\r\n\r\n    mapping(address => bool) users;\r\n\r\n    function registerUser(address username,uint password) public {\r\n\r\n        require(!users[username]);\r\n\r\n        users[username]=true;\r\n        _username.push(username);\r\n        _password.push(password);\r\n    }\r\n\r\n    function loginUser(address username,uint password) public view returns(bool){\r\n\r\n        uint i=0;\r\n        require(users[username]);\r\n\r\n        for(i=0;i<_username.length;i++) {\r\n            if(_username[i]==username && _password[i]==password) {\r\n                return true;\r\n            }\r\n        }\r\n        return false;\r\n    }\r\n}",
  "sourcePath": "D:\\maddy-workspace\\sacet-major-projects-2022\\blockchain-tender-allocation\\contracts\\register.sol",
  "compiler": {
    "name": "solc",
    "version": "0.8.13+commit.abaa5c0e.Emscripten.clang"
  },
  "schemaVersion": "3.4.7",
  "updatedAt": "2022-05-09T17:31:36.433Z",
  "networkType": "ethereum",
  "devdoc": {
    "kind": "dev",
    "methods": {},
    "version": 1
  },
  "userdoc": {
    "kind": "user",
    "methods": {},
    "version": 1
  }
}