{
  "contractName": "tender",
  "abi": [
    {
      "inputs": [
        {
          "internalType": "address",
          "name": "",
          "type": "address"
        }
      ],
      "name": "bidders",
      "outputs": [
        {
          "internalType": "bool",
          "name": "",
          "type": "bool"
        }
      ],
      "stateMutability": "view",
      "type": "function",
      "constant": true
    },
    {
      "inputs": [
        {
          "internalType": "uint256",
          "name": "",
          "type": "uint256"
        }
      ],
      "name": "tId",
      "outputs": [
        {
          "internalType": "bool",
          "name": "",
          "type": "bool"
        }
      ],
      "stateMutability": "view",
      "type": "function",
      "constant": true
    },
    {
      "inputs": [
        {
          "internalType": "address",
          "name": "tenderOwner",
          "type": "address"
        },
        {
          "internalType": "uint256",
          "name": "tenderId",
          "type": "uint256"
        },
        {
          "internalType": "string",
          "name": "tenderData",
          "type": "string"
        }
      ],
      "name": "createTender",
      "outputs": [],
      "stateMutability": "nonpayable",
      "type": "function"
    },
    {
      "inputs": [
        {
          "internalType": "uint256",
          "name": "tenderId",
          "type": "uint256"
        }
      ],
      "name": "getTender",
      "outputs": [
        {
          "internalType": "address",
          "name": "",
          "type": "address"
        },
        {
          "internalType": "uint256",
          "name": "",
          "type": "uint256"
        },
        {
          "internalType": "string",
          "name": "",
          "type": "string"
        }
      ],
      "stateMutability": "view",
      "type": "function",
      "constant": true
    },
    {
      "inputs": [],
      "name": "viewTenders",
      "outputs": [
        {
          "internalType": "address[]",
          "name": "",
          "type": "address[]"
        },
        {
          "internalType": "uint256[]",
          "name": "",
          "type": "uint256[]"
        },
        {
          "internalType": "string[]",
          "name": "",
          "type": "string[]"
        },
        {
          "internalType": "bool[]",
          "name": "",
          "type": "bool[]"
        },
        {
          "internalType": "address[]",
          "name": "",
          "type": "address[]"
        }
      ],
      "stateMutability": "view",
      "type": "function",
      "constant": true
    },
    {
      "inputs": [
        {
          "internalType": "uint256",
          "name": "bidTenderId",
          "type": "uint256"
        },
        {
          "internalType": "uint256",
          "name": "bidAmount",
          "type": "uint256"
        },
        {
          "internalType": "string",
          "name": "bidEmail",
          "type": "string"
        }
      ],
      "name": "bidTender",
      "outputs": [],
      "stateMutability": "nonpayable",
      "type": "function"
    },
    {
      "inputs": [],
      "name": "viewBids",
      "outputs": [
        {
          "internalType": "uint256[]",
          "name": "",
          "type": "uint256[]"
        },
        {
          "internalType": "string[]",
          "name": "",
          "type": "string[]"
        },
        {
          "internalType": "address[]",
          "name": "",
          "type": "address[]"
        },
        {
          "internalType": "uint256[]",
          "name": "",
          "type": "uint256[]"
        }
      ],
      "stateMutability": "view",
      "type": "function",
      "constant": true
    },
    {
      "inputs": [
        {
          "internalType": "uint256",
          "name": "tenderId",
          "type": "uint256"
        },
        {
          "internalType": "address",
          "name": "bidOwner",
          "type": "address"
        }
      ],
      "name": "allocateTender",
      "outputs": [],
      "stateMutability": "nonpayable",
      "type": "function"
    }
  ],
  "bytecode": "0x608060405234801561001057600080fd5b506116ed806100206000396000f3fe608060405234801561001057600080fd5b50600436106100885760003560e01c8063c2d2633c1161005b578063c2d2633c14610127578063ce82f3b114610143578063d4e309ea14610165578063fcc8f7931461018657610088565b80630585c25e1461008d5780632209198d146100bf578063268091af146100ef57806396f9ae8b1461010b575b600080fd5b6100a760048036038101906100a29190610d5e565b6101b6565b6040516100b693929190610e74565b60405180910390f35b6100d960048036038101906100d49190610d5e565b61039b565b6040516100e69190610ecd565b60405180910390f35b61010960048036038101906101049190611049565b6103bb565b005b610125600480360381019061012091906110b8565b610587565b005b610141600480360381019061013c9190611127565b61067d565b005b61014b610767565b60405161015c9594939291906114ad565b60405180910390f35b61016d610a36565b60405161017d9493929190611523565b60405180910390f35b6101a0600480360381019061019b9190611584565b610c51565b6040516101ad9190610ecd565b60405180910390f35b60008060606009600085815260200190815260200160002060009054906101000a900460ff166101e557600080fd5b600080600180549050111561035357600090505b60018054905081101561035257846001828154811061021b5761021a6115b1565b5b90600052602060002001540361033f576000818154811061023f5761023e6115b1565b5b9060005260206000200160009054906101000a900473ffffffffffffffffffffffffffffffffffffffff166001828154811061027e5761027d6115b1565b5b90600052602060002001546002838154811061029d5761029c6115b1565b5b906000526020600020018080546102b39061160f565b80601f01602080910402602001604051908101604052809291908181526020018280546102df9061160f565b801561032c5780601f106103015761010080835404028352916020019161032c565b820191906000526020600020905b81548152906001019060200180831161030f57829003601f168201915b5050505050905093509350935050610394565b808061034a9061166f565b9150506101f9565b5b3360006040518060400160405280600281526020017f4e41000000000000000000000000000000000000000000000000000000000000815250935093509350505b9193909250565b60096020528060005260406000206000915054906101000a900460ff1681565b6009600083815260200190815260200160002060009054906101000a900460ff16156103e657600080fd5b60016009600084815260200190815260200160002060006101000a81548160ff0219169083151502179055506000839080600181540180825580915050600190039060005260206000200160009091909190916101000a81548173ffffffffffffffffffffffffffffffffffffffff021916908373ffffffffffffffffffffffffffffffffffffffff16021790555060018290806001815401808255809150506001900390600052602060002001600090919091909150556002819080600181540180825580915050600190039060005260206000200160009091909190915090805190602001906104d9929190610c71565b506003600090806001815401808255809150506001900390600052602060002090602091828204019190069091909190916101000a81548160ff0219169083151502179055506004839080600181540180825580915050600190039060005260206000200160009091909190916101000a81548173ffffffffffffffffffffffffffffffffffffffff021916908373ffffffffffffffffffffffffffffffffffffffff160217905550505050565b60068290806001815401808255809150506001900390600052602060002001600090919091909150556008339080600181540180825580915050600190039060005260206000200160009091909190916101000a81548173ffffffffffffffffffffffffffffffffffffffff021916908373ffffffffffffffffffffffffffffffffffffffff1602179055506005839080600181540180825580915050600190039060005260206000200160009091909190915055600781908060018154018082558091505060019003906000526020600020016000909190919091509080519060200190610677929190610c71565b50505050565b60005b6001805490508110156107625782600182815481106106a2576106a16115b1565b5b90600052602060002001540361074f576001600382815481106106c8576106c76115b1565b5b90600052602060002090602091828204019190066101000a81548160ff0219169083151502179055508160048281548110610706576107056115b1565b5b9060005260206000200160006101000a81548173ffffffffffffffffffffffffffffffffffffffff021916908373ffffffffffffffffffffffffffffffffffffffff1602179055505b808061075a9061166f565b915050610680565b505050565b606080606080606060006001600260036004848054806020026020016040519081016040528092919081815260200182805480156107fa57602002820191906000526020600020905b8160009054906101000a900473ffffffffffffffffffffffffffffffffffffffff1673ffffffffffffffffffffffffffffffffffffffff16815260200190600101908083116107b0575b505050505094508380548060200260200160405190810160405280929190818152602001828054801561084c57602002820191906000526020600020905b815481526020019060010190808311610838575b5050505050935082805480602002602001604051908101604052809291908181526020016000905b828210156109205783829060005260206000200180546108939061160f565b80601f01602080910402602001604051908101604052809291908181526020018280546108bf9061160f565b801561090c5780601f106108e15761010080835404028352916020019161090c565b820191906000526020600020905b8154815290600101906020018083116108ef57829003601f168201915b505050505081526020019060010190610874565b5050505092508180548060200260200160405190810160405280929190818152602001828054801561099657602002820191906000526020600020906000905b82829054906101000a900460ff161515815260200190600101906020826000010492830192600103820291508084116109605790505b5050505050915080805480602002602001604051908101604052809291908181526020018280548015610a1e57602002820191906000526020600020905b8160009054906101000a900473ffffffffffffffffffffffffffffffffffffffff1673ffffffffffffffffffffffffffffffffffffffff16815260200190600101908083116109d4575b50505050509050945094509450945094509091929394565b606080606080600560076008600683805480602002602001604051908101604052809291908181526020018280548015610a8f57602002820191906000526020600020905b815481526020019060010190808311610a7b575b5050505050935082805480602002602001604051908101604052809291908181526020016000905b82821015610b63578382906000526020600020018054610ad69061160f565b80601f0160208091040260200160405190810160405280929190818152602001828054610b029061160f565b8015610b4f5780601f10610b2457610100808354040283529160200191610b4f565b820191906000526020600020905b815481529060010190602001808311610b3257829003601f168201915b505050505081526020019060010190610ab7565b50505050925081805480602002602001604051908101604052809291908181526020018280548015610bea57602002820191906000526020600020905b8160009054906101000a900473ffffffffffffffffffffffffffffffffffffffff1673ffffffffffffffffffffffffffffffffffffffff1681526020019060010190808311610ba0575b5050505050915080805480602002602001604051908101604052809291908181526020018280548015610c3c57602002820191906000526020600020905b815481526020019060010190808311610c28575b50505050509050935093509350935090919293565b600a6020528060005260406000206000915054906101000a900460ff1681565b828054610c7d9061160f565b90600052602060002090601f016020900481019282610c9f5760008555610ce6565b82601f10610cb857805160ff1916838001178555610ce6565b82800160010185558215610ce6579182015b82811115610ce5578251825591602001919060010190610cca565b5b509050610cf39190610cf7565b5090565b5b80821115610d10576000816000905550600101610cf8565b5090565b6000604051905090565b600080fd5b600080fd5b6000819050919050565b610d3b81610d28565b8114610d4657600080fd5b50565b600081359050610d5881610d32565b92915050565b600060208284031215610d7457610d73610d1e565b5b6000610d8284828501610d49565b91505092915050565b600073ffffffffffffffffffffffffffffffffffffffff82169050919050565b6000610db682610d8b565b9050919050565b610dc681610dab565b82525050565b610dd581610d28565b82525050565b600081519050919050565b600082825260208201905092915050565b60005b83811015610e15578082015181840152602081019050610dfa565b83811115610e24576000848401525b50505050565b6000601f19601f8301169050919050565b6000610e4682610ddb565b610e508185610de6565b9350610e60818560208601610df7565b610e6981610e2a565b840191505092915050565b6000606082019050610e896000830186610dbd565b610e966020830185610dcc565b8181036040830152610ea88184610e3b565b9050949350505050565b60008115159050919050565b610ec781610eb2565b82525050565b6000602082019050610ee26000830184610ebe565b92915050565b610ef181610dab565b8114610efc57600080fd5b50565b600081359050610f0e81610ee8565b92915050565b600080fd5b600080fd5b7f4e487b7100000000000000000000000000000000000000000000000000000000600052604160045260246000fd5b610f5682610e2a565b810181811067ffffffffffffffff82111715610f7557610f74610f1e565b5b80604052505050565b6000610f88610d14565b9050610f948282610f4d565b919050565b600067ffffffffffffffff821115610fb457610fb3610f1e565b5b610fbd82610e2a565b9050602081019050919050565b82818337600083830152505050565b6000610fec610fe784610f99565b610f7e565b90508281526020810184848401111561100857611007610f19565b5b611013848285610fca565b509392505050565b600082601f8301126110305761102f610f14565b5b8135611040848260208601610fd9565b91505092915050565b60008060006060848603121561106257611061610d1e565b5b600061107086828701610eff565b935050602061108186828701610d49565b925050604084013567ffffffffffffffff8111156110a2576110a1610d23565b5b6110ae8682870161101b565b9150509250925092565b6000806000606084860312156110d1576110d0610d1e565b5b60006110df86828701610d49565b93505060206110f086828701610d49565b925050604084013567ffffffffffffffff81111561111157611110610d23565b5b61111d8682870161101b565b9150509250925092565b6000806040838503121561113e5761113d610d1e565b5b600061114c85828601610d49565b925050602061115d85828601610eff565b9150509250929050565b600081519050919050565b600082825260208201905092915050565b6000819050602082019050919050565b61119c81610dab565b82525050565b60006111ae8383611193565b60208301905092915050565b6000602082019050919050565b60006111d282611167565b6111dc8185611172565b93506111e783611183565b8060005b838110156112185781516111ff88826111a2565b975061120a836111ba565b9250506001810190506111eb565b5085935050505092915050565b600081519050919050565b600082825260208201905092915050565b6000819050602082019050919050565b61125a81610d28565b82525050565b600061126c8383611251565b60208301905092915050565b6000602082019050919050565b600061129082611225565b61129a8185611230565b93506112a583611241565b8060005b838110156112d65781516112bd8882611260565b97506112c883611278565b9250506001810190506112a9565b5085935050505092915050565b600081519050919050565b600082825260208201905092915050565b6000819050602082019050919050565b600082825260208201905092915050565b600061132b82610ddb565b611335818561130f565b9350611345818560208601610df7565b61134e81610e2a565b840191505092915050565b60006113658383611320565b905092915050565b6000602082019050919050565b6000611385826112e3565b61138f81856112ee565b9350836020820285016113a1856112ff565b8060005b858110156113dd57848403895281516113be8582611359565b94506113c98361136d565b925060208a019950506001810190506113a5565b50829750879550505050505092915050565b600081519050919050565b600082825260208201905092915050565b6000819050602082019050919050565b61142481610eb2565b82525050565b6000611436838361141b565b60208301905092915050565b6000602082019050919050565b600061145a826113ef565b61146481856113fa565b935061146f8361140b565b8060005b838110156114a0578151611487888261142a565b975061149283611442565b925050600181019050611473565b5085935050505092915050565b600060a08201905081810360008301526114c781886111c7565b905081810360208301526114db8187611285565b905081810360408301526114ef818661137a565b90508181036060830152611503818561144f565b9050818103608083015261151781846111c7565b90509695505050505050565b6000608082019050818103600083015261153d8187611285565b90508181036020830152611551818661137a565b9050818103604083015261156581856111c7565b905081810360608301526115798184611285565b905095945050505050565b60006020828403121561159a57611599610d1e565b5b60006115a884828501610eff565b91505092915050565b7f4e487b7100000000000000000000000000000000000000000000000000000000600052603260045260246000fd5b7f4e487b7100000000000000000000000000000000000000000000000000000000600052602260045260246000fd5b6000600282049050600182168061162757607f821691505b60208210810361163a576116396115e0565b5b50919050565b7f4e487b7100000000000000000000000000000000000000000000000000000000600052601160045260246000fd5b600061167a82610d28565b91507fffffffffffffffffffffffffffffffffffffffffffffffffffffffffffffffff82036116ac576116ab611640565b5b60018201905091905056fea264697066735822122013fad69fbcf88c25b33896aebc7f8b5a06c8337ce5fea54fae3d81027a1e144064736f6c634300080d0033",
  "immutableReferences": {},
  "source": "// SPDX-License-Identifier: MIT\r\npragma solidity >=0.4.22 <0.9.0;\r\n\r\ncontract tender {\r\n    \r\n    address[] _tenderOwner;\r\n    uint[] _tenderId;\r\n    string[] _tenderData;\r\n    bool[] _tenderState;\r\n    address[] _tenderBidder;\r\n\r\n    uint[] _bidTenderId;\r\n    uint[] _bidAmount;\r\n    string[] _bidEmail;\r\n    address[] _bidders;\r\n    \r\n    mapping(uint => bool) public tId;\r\n    mapping(address =>bool) public bidders;\r\n\r\n    function createTender(address tenderOwner,uint tenderId,string memory tenderData) public {\r\n\r\n        require(!tId[tenderId]);\r\n\r\n        tId[tenderId]=true;\r\n        _tenderOwner.push(tenderOwner);\r\n        _tenderId.push(tenderId);\r\n        _tenderData.push(tenderData);\r\n        _tenderState.push(false);\r\n        _tenderBidder.push(tenderOwner);\r\n    }\r\n\r\n    function getTender(uint tenderId) public view returns (address,uint,string memory) {\r\n        \r\n        require(tId[tenderId]);\r\n        uint i=0;\r\n\r\n        if(_tenderId.length>0) {\r\n            for(i=0;i<_tenderId.length;i++) {\r\n                if(_tenderId[i]==tenderId) {\r\n                    return (_tenderOwner[i],_tenderId[i],_tenderData[i]);\r\n                }\r\n            }\r\n        }\r\n        return (msg.sender,0,'NA');\r\n    }\r\n\r\n    function viewTenders() public view returns(address[] memory,uint[] memory, string[] memory,bool[] memory,address[] memory) {\r\n\r\n        return(_tenderOwner,_tenderId,_tenderData,_tenderState,_tenderBidder);\r\n    }\r\n\r\n    function bidTender(uint bidTenderId,uint bidAmount,string memory bidEmail) public {\r\n\r\n        _bidAmount.push(bidAmount);\r\n        _bidders.push(msg.sender);\r\n        _bidTenderId.push(bidTenderId);\r\n        _bidEmail.push(bidEmail);\r\n\r\n    }\r\n\r\n    function viewBids() public view returns(uint[] memory,string[] memory,address[] memory,uint[] memory) {\r\n\r\n        return (_bidTenderId,_bidEmail,_bidders,_bidAmount);\r\n    }\r\n\r\n    function allocateTender(uint tenderId,address bidOwner) public {\r\n\r\n        uint i;\r\n        for(i=0;i<_tenderId.length;i++) {\r\n            if(_tenderId[i]==tenderId) {\r\n                _tenderState[i]=true;\r\n                _tenderBidder[i]=bidOwner;\r\n            }\r\n        }\r\n    }\r\n}\r\n",
  "sourcePath": "D:\\maddy-workspace\\sacet-major-projects-2022\\blockchain-tender-allocation\\contracts\\tender.sol",
  "compiler": {
    "name": "solc",
    "version": "0.8.13+commit.abaa5c0e.Emscripten.clang"
  },
  "schemaVersion": "3.4.7",
  "updatedAt": "2022-05-06T10:58:46.173Z",
  "networkType": "ethereum",
  "devdoc": {
    "kind": "dev",
    "methods": {},
    "version": 1
  },
  "userdoc": {
    "kind": "user",
    "methods": {},
    "version": 1
  }
}